{
    "_format": "hh-sol-artifact-1",
    "contractName": "WebpageStorage",
    "sourceName": "contracts/WebpageStorage.sol",
    "abi": [
        {
            "anonymous": false,
            "inputs": [
                {
                    "indexed": true,
                    "internalType": "uint256",
                    "name": "proposalId",
                    "type": "uint256"
                },
                {
                    "indexed": false,
                    "internalType": "address",
                    "name": "proposer",
                    "type": "address"
                },
                {
                    "indexed": false,
                    "internalType": "string",
                    "name": "description",
                    "type": "string"
                }
            ],
            "name": "ProposalCreated",
            "type": "event"
        },
        {
            "anonymous": false,
            "inputs": [
                {
                    "indexed": true,
                    "internalType": "uint256",
                    "name": "proposalId",
                    "type": "uint256"
                }
            ],
            "name": "ProposalExecuted",
            "type": "event"
        },
        {
            "anonymous": false,
            "inputs": [
                {
                    "indexed": true,
                    "internalType": "uint256",
                    "name": "proposalId",
                    "type": "uint256"
                },
                {
                    "indexed": false,
                    "internalType": "address",
                    "name": "voter",
                    "type": "address"
                },
                {
                    "indexed": false,
                    "internalType": "bool",
                    "name": "support",
                    "type": "bool"
                }
            ],
            "name": "Voted",
            "type": "event"
        },
        {
            "anonymous": false,
            "inputs": [
                {
                    "indexed": false,
                    "internalType": "string",
                    "name": "domain",
                    "type": "string"
                },
                {
                    "indexed": false,
                    "internalType": "string",
                    "name": "cid",
                    "type": "string"
                },
                {
                    "indexed": false,
                    "internalType": "address",
                    "name": "owner",
                    "type": "address"
                },
                {
                    "indexed": false,
                    "internalType": "uint256",
                    "name": "timestamp",
                    "type": "uint256"
                }
            ],
            "name": "WebpageStored",
            "type": "event"
        },
        {
            "inputs": [],
            "name": "EXECUTION_DELAY",
            "outputs": [
                {
                    "internalType": "uint256",
                    "name": "",
                    "type": "uint256"
                }
            ],
            "stateMutability": "view",
            "type": "function"
        },
        {
            "inputs": [],
            "name": "VOTING_PERIOD",
            "outputs": [
                {
                    "internalType": "uint256",
                    "name": "",
                    "type": "uint256"
                }
            ],
            "stateMutability": "view",
            "type": "function"
        },
        {
            "inputs": [
                {
                    "internalType": "string",
                    "name": "description",
                    "type": "string"
                }
            ],
            "name": "createProposal",
            "outputs": [
                {
                    "internalType": "uint256",
                    "name": "",
                    "type": "uint256"
                }
            ],
            "stateMutability": "nonpayable",
            "type": "function"
        },
        {
            "inputs": [
                {
                    "internalType": "uint256",
                    "name": "proposalId",
                    "type": "uint256"
                }
            ],
            "name": "executeProposal",
            "outputs": [],
            "stateMutability": "nonpayable",
            "type": "function"
        },
        {
            "inputs": [
                {
                    "internalType": "address",
                    "name": "user",
                    "type": "address"
                }
            ],
            "name": "getUserWebpages",
            "outputs": [
                {
                    "internalType": "string[]",
                    "name": "",
                    "type": "string[]"
                }
            ],
            "stateMutability": "view",
            "type": "function"
        },
        {
            "inputs": [
                {
                    "internalType": "string",
                    "name": "domain",
                    "type": "string"
                }
            ],
            "name": "getWebpage",
            "outputs": [
                {
                    "internalType": "string",
                    "name": "",
                    "type": "string"
                },
                {
                    "internalType": "address",
                    "name": "",
                    "type": "address"
                },
                {
                    "internalType": "uint256",
                    "name": "",
                    "type": "uint256"
                }
            ],
            "stateMutability": "view",
            "type": "function"
        },
        {
            "inputs": [
                {
                    "internalType": "address",
                    "name": "",
                    "type": "address"
                },
                {
                    "internalType": "uint256",
                    "name": "",
                    "type": "uint256"
                }
            ],
            "name": "hasVoted",
            "outputs": [
                {
                    "internalType": "bool",
                    "name": "",
                    "type": "bool"
                }
            ],
            "stateMutability": "view",
            "type": "function"
        },
        {
            "inputs": [],
            "name": "proposalCount",
            "outputs": [
                {
                    "internalType": "uint256",
                    "name": "",
                    "type": "uint256"
                }
            ],
            "stateMutability": "view",
            "type": "function"
        },
        {
            "inputs": [
                {
                    "internalType": "uint256",
                    "name": "",
                    "type": "uint256"
                }
            ],
            "name": "proposals",
            "outputs": [
                {
                    "internalType": "uint256",
                    "name": "id",
                    "type": "uint256"
                },
                {
                    "internalType": "address",
                    "name": "proposer",
                    "type": "address"
                },
                {
                    "internalType": "string",
                    "name": "description",
                    "type": "string"
                },
                {
                    "internalType": "uint256",
                    "name": "forVotes",
                    "type": "uint256"
                },
                {
                    "internalType": "uint256",
                    "name": "againstVotes",
                    "type": "uint256"
                },
                {
                    "internalType": "uint256",
                    "name": "startTime",
                    "type": "uint256"
                },
                {
                    "internalType": "uint256",
                    "name": "endTime",
                    "type": "uint256"
                },
                {
                    "internalType": "bool",
                    "name": "executed",
                    "type": "bool"
                }
            ],
            "stateMutability": "view",
            "type": "function"
        },
        {
            "inputs": [
                {
                    "internalType": "string",
                    "name": "domain",
                    "type": "string"
                },
                {
                    "internalType": "string",
                    "name": "cid",
                    "type": "string"
                }
            ],
            "name": "storeWebpage",
            "outputs": [],
            "stateMutability": "nonpayable",
            "type": "function"
        },
        {
            "inputs": [
                {
                    "internalType": "address",
                    "name": "",
                    "type": "address"
                },
                {
                    "internalType": "uint256",
                    "name": "",
                    "type": "uint256"
                }
            ],
            "name": "userWebpages",
            "outputs": [
                {
                    "internalType": "string",
                    "name": "",
                    "type": "string"
                }
            ],
            "stateMutability": "view",
            "type": "function"
        },
        {
            "inputs": [
                {
                    "internalType": "uint256",
                    "name": "proposalId",
                    "type": "uint256"
                },
                {
                    "internalType": "bool",
                    "name": "support",
                    "type": "bool"
                }
            ],
            "name": "vote",
            "outputs": [],
            "stateMutability": "nonpayable",
            "type": "function"
        },
        {
            "inputs": [
                {
                    "internalType": "string",
                    "name": "",
                    "type": "string"
                }
            ],
            "name": "webpages",
            "outputs": [
                {
                    "internalType": "string",
                    "name": "cid",
                    "type": "string"
                },
                {
                    "internalType": "address",
                    "name": "owner",
                    "type": "address"
                },
                {
                    "internalType": "uint256",
                    "name": "timestamp",
                    "type": "uint256"
                }
            ],
            "stateMutability": "view",
            "type": "function"
        }
    ],
    "bytecode": "0x608060405234801561001057600080fd5b50611e85806100206000396000f3fe608060405234801561001057600080fd5b50600436106100cf5760003560e01c806349c2a1a61161008c578063b4ba089811610066578063b4ba089814610241578063c9d27afe14610273578063da35c6641461028f578063fc227783146102ad576100cf565b806349c2a1a6146101c157806360730a8a146101f1578063b1610d7e14610223576100cf565b8063013cf08b146100d45780630d61b5191461010b578063221001181461012757806334b22dca1461014357806337f135d7146101735780634254582514610191575b600080fd5b6100ee60048036038101906100e99190610f8f565b6102dd565b6040516101029897969594939291906110b7565b60405180910390f35b61012560048036038101906101209190610f8f565b6103da565b005b610141600480360381019061013c9190611271565b610580565b005b61015d60048036038101906101589190611315565b610774565b60405161016a919061144e565b60405180910390f35b61017b61088c565b6040516101889190611470565b60405180910390f35b6101ab60048036038101906101a6919061148b565b610893565b6040516101b891906114cb565b60405180910390f35b6101db60048036038101906101d691906114e6565b6108c2565b6040516101e89190611470565b60405180910390f35b61020b600480360381019061020691906114e6565b6109bc565b60405161021a9392919061152f565b60405180910390f35b61022b610aa4565b6040516102389190611470565b60405180910390f35b61025b600480360381019061025691906114e6565b610aab565b60405161026a9392919061152f565b60405180910390f35b61028d60048036038101906102889190611599565b610c33565b005b610297610e86565b6040516102a49190611470565b60405180910390f35b6102c760048036038101906102c2919061148b565b610e8c565b6040516102d491906115d9565b60405180910390f35b60026020528060005260406000206000915090508060000154908060010160009054906101000a900473ffffffffffffffffffffffffffffffffffffffff169080600201805461032c9061162a565b80601f01602080910402602001604051908101604052809291908181526020018280546103589061162a565b80156103a55780601f1061037a576101008083540402835291602001916103a5565b820191906000526020600020905b81548152906001019060200180831161038857829003601f168201915b5050505050908060030154908060040154908060050154908060060154908060070160009054906101000a900460ff16905088565b6000811180156103ec57506004548111155b61042b576040517f08c379a0000000000000000000000000000000000000000000000000000000008152600401610422906116a7565b60405180910390fd5b60006002600083815260200190815260200160002090508060070160009054906101000a900460ff1615610494576040517f08c379a000000000000000000000000000000000000000000000000000000000815260040161048b90611713565b60405180910390fd5b6202a30081600601546104a79190611762565b42116104e8576040517f08c379a00000000000000000000000000000000000000000000000000000000081526004016104df906117e2565b60405180910390fd5b8060040154816003015411610532576040517f08c379a00000000000000000000000000000000000000000000000000000000081526004016105299061184e565b60405180910390fd5b60018160070160006101000a81548160ff021916908315150217905550817f712ae1383f79ac853f8d882153778e0260ef8f03b504e2866e0593e04d2b291f60405160405180910390a25050565b60008251116105c4576040517f08c379a00000000000000000000000000000000000000000000000000000000081526004016105bb906118ba565b60405180910390fd5b6000815111610608576040517f08c379a00000000000000000000000000000000000000000000000000000000081526004016105ff90611926565b60405180910390fd5b60405180606001604052808281526020013373ffffffffffffffffffffffffffffffffffffffff168152602001428152506000836040516106499190611982565b9081526020016040518091039020600082015181600001908161066c9190611b45565b5060208201518160010160006101000a81548173ffffffffffffffffffffffffffffffffffffffff021916908373ffffffffffffffffffffffffffffffffffffffff16021790555060408201518160020155905050600160003373ffffffffffffffffffffffffffffffffffffffff1673ffffffffffffffffffffffffffffffffffffffff168152602001908152602001600020829080600181540180825580915050600190039060005260206000200160009091909190915090816107329190611b45565b507f63c56360acb3e2e242eacda30627d5f9910ebe045bb8a58737cc0cad4d854ea6828233426040516107689493929190611c17565b60405180910390a15050565b6060600160008373ffffffffffffffffffffffffffffffffffffffff1673ffffffffffffffffffffffffffffffffffffffff168152602001908152602001600020805480602002602001604051908101604052809291908181526020016000905b828210156108815783829060005260206000200180546107f49061162a565b80601f01602080910402602001604051908101604052809291908181526020018280546108209061162a565b801561086d5780601f106108425761010080835404028352916020019161086d565b820191906000526020600020905b81548152906001019060200180831161085057829003601f168201915b5050505050815260200190600101906107d5565b505050509050919050565b6202a30081565b60036020528160005260406000206020528060005260406000206000915091509054906101000a900460ff1681565b6000600460008154809291906108d790611c6a565b9190505550600060026000600454815260200190815260200160002090506004548160000181905550338160010160006101000a81548173ffffffffffffffffffffffffffffffffffffffff021916908373ffffffffffffffffffffffffffffffffffffffff160217905550828160020190816109549190611b45565b504281600501819055506203f4804261096d9190611762565b81600601819055506004547f7585f467599d0f008985f231af99293be388626ac16ca59505c2f8f88969cd6333856040516109a9929190611cb2565b60405180910390a2600454915050919050565b6000818051602081018201805184825260208301602085012081835280955050505050506000915090508060000180546109f59061162a565b80601f0160208091040260200160405190810160405280929190818152602001828054610a219061162a565b8015610a6e5780601f10610a4357610100808354040283529160200191610a6e565b820191906000526020600020905b815481529060010190602001808311610a5157829003601f168201915b5050505050908060010160009054906101000a900473ffffffffffffffffffffffffffffffffffffffff16908060020154905083565b6203f48081565b606060008060008085604051610ac19190611982565b9081526020016040518091039020604051806060016040529081600082018054610aea9061162a565b80601f0160208091040260200160405190810160405280929190818152602001828054610b169061162a565b8015610b635780601f10610b3857610100808354040283529160200191610b63565b820191906000526020600020905b815481529060010190602001808311610b4657829003601f168201915b505050505081526020016001820160009054906101000a900473ffffffffffffffffffffffffffffffffffffffff1673ffffffffffffffffffffffffffffffffffffffff1673ffffffffffffffffffffffffffffffffffffffff1681526020016002820154815250509050600081600001515111610c16576040517f08c379a0000000000000000000000000000000000000000000000000000000008152600401610c0d90611d2e565b60405180910390fd5b806000015181602001518260400151935093509350509193909250565b600082118015610c4557506004548211155b610c84576040517f08c379a0000000000000000000000000000000000000000000000000000000008152600401610c7b906116a7565b60405180910390fd5b600360003373ffffffffffffffffffffffffffffffffffffffff1673ffffffffffffffffffffffffffffffffffffffff168152602001908152602001600020600083815260200190815260200160002060009054906101000a900460ff1615610d22576040517f08c379a0000000000000000000000000000000000000000000000000000000008152600401610d1990611d9a565b60405180910390fd5b6002600083815260200190815260200160002060060154421115610d7b576040517f08c379a0000000000000000000000000000000000000000000000000000000008152600401610d7290611e06565b60405180910390fd5b8015610db257600260008381526020019081526020016000206003016000815480929190610da890611c6a565b9190505550610ddf565b600260008381526020019081526020016000206004016000815480929190610dd990611c6a565b91905055505b6001600360003373ffffffffffffffffffffffffffffffffffffffff1673ffffffffffffffffffffffffffffffffffffffff168152602001908152602001600020600084815260200190815260200160002060006101000a81548160ff021916908315150217905550817ff2913dbe661ee2acc4a046d8fbcdc792373bda34c41c6086484b5345e5785e5f3383604051610e7a929190611e26565b60405180910390a25050565b60045481565b60016020528160005260406000208181548110610ea857600080fd5b90600052602060002001600091509150508054610ec49061162a565b80601f0160208091040260200160405190810160405280929190818152602001828054610ef09061162a565b8015610f3d5780601f10610f1257610100808354040283529160200191610f3d565b820191906000526020600020905b815481529060010190602001808311610f2057829003601f168201915b505050505081565b6000604051905090565b600080fd5b600080fd5b6000819050919050565b610f6c81610f59565b8114610f7757600080fd5b50565b600081359050610f8981610f63565b92915050565b600060208284031215610fa557610fa4610f4f565b5b6000610fb384828501610f7a565b91505092915050565b610fc581610f59565b82525050565b600073ffffffffffffffffffffffffffffffffffffffff82169050919050565b6000610ff682610fcb565b9050919050565b61100681610feb565b82525050565b600081519050919050565b600082825260208201905092915050565b60005b8381101561104657808201518184015260208101905061102b565b60008484015250505050565b6000601f19601f8301169050919050565b600061106e8261100c565b6110788185611017565b9350611088818560208601611028565b61109181611052565b840191505092915050565b60008115159050919050565b6110b18161109c565b82525050565b6000610100820190506110cd600083018b610fbc565b6110da602083018a610ffd565b81810360408301526110ec8189611063565b90506110fb6060830188610fbc565b6111086080830187610fbc565b61111560a0830186610fbc565b61112260c0830185610fbc565b61112f60e08301846110a8565b9998505050505050505050565b600080fd5b600080fd5b7f4e487b7100000000000000000000000000000000000000000000000000000000600052604160045260246000fd5b61117e82611052565b810181811067ffffffffffffffff8211171561119d5761119c611146565b5b80604052505050565b60006111b0610f45565b90506111bc8282611175565b919050565b600067ffffffffffffffff8211156111dc576111db611146565b5b6111e582611052565b9050602081019050919050565b82818337600083830152505050565b600061121461120f846111c1565b6111a6565b9050828152602081018484840111156112305761122f611141565b5b61123b8482856111f2565b509392505050565b600082601f8301126112585761125761113c565b5b8135611268848260208601611201565b91505092915050565b6000806040838503121561128857611287610f4f565b5b600083013567ffffffffffffffff8111156112a6576112a5610f54565b5b6112b285828601611243565b925050602083013567ffffffffffffffff8111156112d3576112d2610f54565b5b6112df85828601611243565b9150509250929050565b6112f281610feb565b81146112fd57600080fd5b50565b60008135905061130f816112e9565b92915050565b60006020828403121561132b5761132a610f4f565b5b600061133984828501611300565b91505092915050565b600081519050919050565b600082825260208201905092915050565b6000819050602082019050919050565b600082825260208201905092915050565b600061138a8261100c565b611394818561136e565b93506113a4818560208601611028565b6113ad81611052565b840191505092915050565b60006113c4838361137f565b905092915050565b6000602082019050919050565b60006113e482611342565b6113ee818561134d565b9350836020820285016114008561135e565b8060005b8581101561143c578484038952815161141d85826113b8565b9450611428836113cc565b925060208a01995050600181019050611404565b50829750879550505050505092915050565b6000602082019050818103600083015261146881846113d9565b905092915050565b60006020820190506114856000830184610fbc565b92915050565b600080604083850312156114a2576114a1610f4f565b5b60006114b085828601611300565b92505060206114c185828601610f7a565b9150509250929050565b60006020820190506114e060008301846110a8565b92915050565b6000602082840312156114fc576114fb610f4f565b5b600082013567ffffffffffffffff81111561151a57611519610f54565b5b61152684828501611243565b91505092915050565b600060608201905081810360008301526115498186611063565b90506115586020830185610ffd565b6115656040830184610fbc565b949350505050565b6115768161109c565b811461158157600080fd5b50565b6000813590506115938161156d565b92915050565b600080604083850312156115b0576115af610f4f565b5b60006115be85828601610f7a565b92505060206115cf85828601611584565b9150509250929050565b600060208201905081810360008301526115f38184611063565b905092915050565b7f4e487b7100000000000000000000000000000000000000000000000000000000600052602260045260246000fd5b6000600282049050600182168061164257607f821691505b602082108103611655576116546115fb565b5b50919050565b7f496e76616c69642070726f706f73616c20494400000000000000000000000000600082015250565b6000611691601383611017565b915061169c8261165b565b602082019050919050565b600060208201905081810360008301526116c081611684565b9050919050565b7f50726f706f73616c20616c726561647920657865637574656400000000000000600082015250565b60006116fd601983611017565b9150611708826116c7565b602082019050919050565b6000602082019050818103600083015261172c816116f0565b9050919050565b7f4e487b7100000000000000000000000000000000000000000000000000000000600052601160045260246000fd5b600061176d82610f59565b915061177883610f59565b92508282019050808211156117905761178f611733565b5b92915050565b7f457865637574696f6e2064656c6179206e6f74206d6574000000000000000000600082015250565b60006117cc601783611017565b91506117d782611796565b602082019050919050565b600060208201905081810360008301526117fb816117bf565b9050919050565b7f50726f706f73616c20646964206e6f7420706173730000000000000000000000600082015250565b6000611838601583611017565b915061184382611802565b602082019050919050565b600060208201905081810360008301526118678161182b565b9050919050565b7f446f6d61696e2063616e6e6f7420626520656d70747900000000000000000000600082015250565b60006118a4601683611017565b91506118af8261186e565b602082019050919050565b600060208201905081810360008301526118d381611897565b9050919050565b7f4349442063616e6e6f7420626520656d70747900000000000000000000000000600082015250565b6000611910601383611017565b915061191b826118da565b602082019050919050565b6000602082019050818103600083015261193f81611903565b9050919050565b600081905092915050565b600061195c8261100c565b6119668185611946565b9350611976818560208601611028565b80840191505092915050565b600061198e8284611951565b915081905092915050565b60008190508160005260206000209050919050565b60006020601f8301049050919050565b600082821b905092915050565b6000600883026119fb7fffffffffffffffffffffffffffffffffffffffffffffffffffffffffffffffff826119be565b611a0586836119be565b95508019841693508086168417925050509392505050565b6000819050919050565b6000611a42611a3d611a3884610f59565b611a1d565b610f59565b9050919050565b6000819050919050565b611a5c83611a27565b611a70611a6882611a49565b8484546119cb565b825550505050565b600090565b611a85611a78565b611a90818484611a53565b505050565b5b81811015611ab457611aa9600082611a7d565b600181019050611a96565b5050565b601f821115611af957611aca81611999565b611ad3846119ae565b81016020851015611ae2578190505b611af6611aee856119ae565b830182611a95565b50505b505050565b600082821c905092915050565b6000611b1c60001984600802611afe565b1980831691505092915050565b6000611b358383611b0b565b9150826002028217905092915050565b611b4e8261100c565b67ffffffffffffffff811115611b6757611b66611146565b5b611b71825461162a565b611b7c828285611ab8565b600060209050601f831160018114611baf5760008415611b9d578287015190505b611ba78582611b29565b865550611c0f565b601f198416611bbd86611999565b60005b82811015611be557848901518255600182019150602085019450602081019050611bc0565b86831015611c025784890151611bfe601f891682611b0b565b8355505b6001600288020188555050505b505050505050565b60006080820190508181036000830152611c318187611063565b90508181036020830152611c458186611063565b9050611c546040830185610ffd565b611c616060830184610fbc565b95945050505050565b6000611c7582610f59565b91507fffffffffffffffffffffffffffffffffffffffffffffffffffffffffffffffff8203611ca757611ca6611733565b5b600182019050919050565b6000604082019050611cc76000830185610ffd565b8181036020830152611cd98184611063565b90509392505050565b7f57656270616765206e6f7420666f756e64000000000000000000000000000000600082015250565b6000611d18601183611017565b9150611d2382611ce2565b602082019050919050565b60006020820190508181036000830152611d4781611d0b565b9050919050565b7f416c726561647920766f746564206f6e20746869732070726f706f73616c0000600082015250565b6000611d84601e83611017565b9150611d8f82611d4e565b602082019050919050565b60006020820190508181036000830152611db381611d77565b9050919050565b7f566f74696e6720706572696f642068617320656e646564000000000000000000600082015250565b6000611df0601783611017565b9150611dfb82611dba565b602082019050919050565b60006020820190508181036000830152611e1f81611de3565b9050919050565b6000604082019050611e3b6000830185610ffd565b611e4860208301846110a8565b939250505056fea2646970667358221220b576f2236b7d5db6837b43ddd2c735eb2e04b62819510f29772c835ceac12b6864736f6c63430008180033",
    "linkReferences": {},
    "deployedLinkReferences": {}
}